{
  "_format": "hh-sol-artifact-1",
  "contractName": "MessageStore",
  "sourceName": "contracts/MessageStore.sol",
  "abi": [
    {
      "inputs": [],
      "stateMutability": "nonpayable",
      "type": "constructor"
    },
    {
      "anonymous": false,
      "inputs": [
        {
          "indexed": false,
          "internalType": "string",
          "name": "newMessage",
          "type": "string"
        }
      ],
      "name": "MessageStored",
      "type": "event"
    },
    {
      "inputs": [],
      "name": "retrieveMessage",
      "outputs": [
        {
          "internalType": "string",
          "name": "",
          "type": "string"
        }
      ],
      "stateMutability": "view",
      "type": "function"
    },
    {
      "inputs": [
        {
          "internalType": "string",
          "name": "newMessage",
          "type": "string"
        }
      ],
      "name": "storeMessage",
      "outputs": [],
      "stateMutability": "nonpayable",
      "type": "function"
    }
  ],
  "bytecode": "0x6080604052348015600f57600080fd5b5033600160006101000a81548173ffffffffffffffffffffffffffffffffffffffff021916908373ffffffffffffffffffffffffffffffffffffffff16021790555061084e806100606000396000f3fe608060405234801561001057600080fd5b50600436106100365760003560e01c8063485caefc1461003b578063d4e36ba714610059575b600080fd5b610043610075565b60405161005091906102bc565b60405180910390f35b610073600480360381019061006e919061034d565b610107565b005b606060008054610084906103c9565b80601f01602080910402602001604051908101604052809291908181526020018280546100b0906103c9565b80156100fd5780601f106100d2576101008083540402835291602001916100fd565b820191906000526020600020905b8154815290600101906020018083116100e057829003601f168201915b5050505050905090565b600160009054906101000a900473ffffffffffffffffffffffffffffffffffffffff1673ffffffffffffffffffffffffffffffffffffffff163373ffffffffffffffffffffffffffffffffffffffff1614610197576040517f08c379a000000000000000000000000000000000000000000000000000000000815260040161018e9061046c565b60405180910390fd5b600082829050116101dd576040517f08c379a00000000000000000000000000000000000000000000000000000000081526004016101d4906104d8565b60405180910390fd5b8181600091826101ee9291906106e8565b507f22c2a3a1dcfcd9a26676800829d4de849e614f2861c6969a30cf5881ceb19b8282826040516102209291906107f4565b60405180910390a15050565b600081519050919050565b600082825260208201905092915050565b60005b8381101561026657808201518184015260208101905061024b565b60008484015250505050565b6000601f19601f8301169050919050565b600061028e8261022c565b6102988185610237565b93506102a8818560208601610248565b6102b181610272565b840191505092915050565b600060208201905081810360008301526102d68184610283565b905092915050565b600080fd5b600080fd5b600080fd5b600080fd5b600080fd5b60008083601f84011261030d5761030c6102e8565b5b8235905067ffffffffffffffff81111561032a576103296102ed565b5b602083019150836001820283011115610346576103456102f2565b5b9250929050565b60008060208385031215610364576103636102de565b5b600083013567ffffffffffffffff811115610382576103816102e3565b5b61038e858286016102f7565b92509250509250929050565b7f4e487b7100000000000000000000000000000000000000000000000000000000600052602260045260246000fd5b600060028204905060018216806103e157607f821691505b6020821081036103f4576103f361039a565b5b50919050565b7f4f6e6c7920746865206f776e65722063616e20706572666f726d20746869732060008201527f616374696f6e0000000000000000000000000000000000000000000000000000602082015250565b6000610456602683610237565b9150610461826103fa565b604082019050919050565b6000602082019050818103600083015261048581610449565b9050919050565b7f4d6573736167652063616e6e6f7420626520656d707479000000000000000000600082015250565b60006104c2601783610237565b91506104cd8261048c565b602082019050919050565b600060208201905081810360008301526104f1816104b5565b9050919050565b600082905092915050565b7f4e487b7100000000000000000000000000000000000000000000000000000000600052604160045260246000fd5b60008190508160005260206000209050919050565b60006020601f8301049050919050565b600082821b905092915050565b6000600883026105947fffffffffffffffffffffffffffffffffffffffffffffffffffffffffffffffff82610557565b61059e8683610557565b95508019841693508086168417925050509392505050565b6000819050919050565b6000819050919050565b60006105e56105e06105db846105b6565b6105c0565b6105b6565b9050919050565b6000819050919050565b6105ff836105ca565b61061361060b826105ec565b848454610564565b825550505050565b600090565b61062861061b565b6106338184846105f6565b505050565b5b818110156106575761064c600082610620565b600181019050610639565b5050565b601f82111561069c5761066d81610532565b61067684610547565b81016020851015610685578190505b61069961069185610547565b830182610638565b50505b505050565b600082821c905092915050565b60006106bf600019846008026106a1565b1980831691505092915050565b60006106d883836106ae565b9150826002028217905092915050565b6106f283836104f8565b67ffffffffffffffff81111561070b5761070a610503565b5b61071582546103c9565b61072082828561065b565b6000601f83116001811461074f576000841561073d578287013590505b61074785826106cc565b8655506107af565b601f19841661075d86610532565b60005b8281101561078557848901358255600182019150602085019450602081019050610760565b868310156107a2578489013561079e601f8916826106ae565b8355505b6001600288020188555050505b50505050505050565b82818337600083830152505050565b60006107d38385610237565b93506107e08385846107b8565b6107e983610272565b840190509392505050565b6000602082019050818103600083015261080f8184866107c7565b9050939250505056fea2646970667358221220a0884631a0f7c1d3a001c0ac0730858918dc04eced2f0d988101f63ebf150e2264736f6c634300081c0033",
  "linkReferences": {},
  "deployedLinkReferences": {}
}